8=FIX.4.2|9=0268|35=8|34=1141|52=20110428-10:07:22|49=INORD|50=S|56=Y48|57=Y4801|6=0.0|11=KODCS75UO3X53|14=0|15=ISK|17=GPCFD1-22461|18=N|20=0|37=22407|38=100|39=0|40=2|44=51.1000|528=A|48=IS0000000388|54=1|55=5482|59=0|60=20110428-10:07:22|150=0|151=100|9140=Y|5815=23|109=Y48|76=BOOK|10=125|8=FIX.4.2|9=0165|35=8|34=1142|52=20110428-10:07:22|49=INORD|50=S|56=Y48|57=Y4801|6=0.0|11=KODCS75UO3X53|14=0|17=0|20=0|37=22407|39=0|54=1|55=5482|150=D|151=0|109=Y48|378=8|198=15003|10=029|8=FIX.4.2|9=0268|35=8|34=1143|52=20110428-10:07:22|49=INORD|50=S|56=Y48|57=Y4801|6=0.0|11=KODS2OKHAUX2B|14=0|15=ISK|17=GPCFD1-22463|18=N|20=0|37=22409|38=100|39=0|40=2|44=51.1000|528=A|48=IS0000000388|54=1|55=5482|59=0|60=20110428-10:07:22|150=0|151=100|9140=Y|5815=23|109=Y48|76=BOOK|10=179|8=FIX.4.2|9=0165|35=8|34=1144|52=20110428-10:07:22|49=INORD|50=S|56=Y48|57=Y4801|6=0.0|11=KODS2OKHAUX2B|14=0|17=0|20=0|37=22409|39=0|54=1|55=5482|150=D|151=0|109=Y48|378=8|198=15004|10=082|8=FIX.4.2|9=0268|35=8|34=1145|52=20110428-10:07:22|49=INORD|50=S|56=Y48|57=Y4801|6=0.0|11=KOD7S4YLYUFM7|14=0|15=ISK|17=GPCFD1-22465|18=N|20=0|37=22411|38=100|39=0|40=2|44=51.1000|528=A|48=IS0000000388|54=1|55=5482|59=0|60=20110428-10:07:22|150=0|151=100|9140=Y|5815=23|109=Y48|76=BOOK|10=194|8=FIX.4.2|9=0165|35=8|34=1146|52=20110428-10:07:22|49=INORD|50=S|56=Y48|57=Y4801|6=0.0|11=KOD7S4YLYUFM7|14=0|17=0|20=0|37=22411|39=0|54=1|55=5482|150=D|151=0|109=Y48|378=8|198=15005|10=096|8=FIX.4.2|9=0268|35=8|34=1147|52=20110428-10:07:22|49=INORD|50=S|56=Y48|57=Y4801|6=0.0|11=KODEIQJMBQFWO|14=0|15=ISK|17=GPCFD1-22467|18=N|20=0|37=22413|38=100|39=0|40=2|44=51.1000|528=A|48=IS0000000388|54=1|55=5482|59=0|60=20110428-10:07:22|150=0|151=100|9140=Y|5815=23|109=Y48|76=BOOK|10=226|8=FIX.4.2|9=0165|35=8|34=1148|52=20110428-10:07:22|49=INORD|50=S|56=Y48|57=Y4801|6=0.0|11=KODEIQJMBQFWO|14=0|17=0|20=0|37=22413|39=0|54=1|55=5482|150=D|151=0|109=Y48|378=8|198=15006|10=127|8=FIX.4.2|9=0268|35=8|34=1149|52=20110428-10:07:22|49=INORD|50=S|56=Y48|57=Y4801|6=0.0|11=KODLORYJAVBSN|14=0|15=ISK|17=GPCFD1-22469|18=N|20=0|37=22415|38=100|39=0|40=2|44=51.1000|528=A|48=IS0000000388|54=1|55=5482|59=0|60=20110428-10:07:22|150=0|151=100|9140=Y|5815=23|109=Y48|76=BOOK|10=253|8=FIX.4.2|9=0165|35=8|34=1150|52=20110428-10:07:22|49=INORD|50=S|56=Y48|57=Y4801|6=0.0|11=KODLORYJAVBSN|14=0|17=0|20=0|37=22415|39=0|54=1|55=5482|150=D|151=0|109=Y48|378=8|198=15007|10=144|8=FIX.4.2|9=0268|35=8|34=1151|52=20110428-10:07:23|49=INORD|50=S|56=Y48|57=Y4801|6=0.0|11=KODRHN1GYGUV5|14=0|15=ISK|17=GPCFD1-22471|18=N|20=0|37=22417|38=100|39=0|40=2|44=51.1000|528=A|48=IS0000000388|54=1|55=5482|59=0|60=20110428-10:07:23|150=0|151=100|9140=Y|5815=23|109=Y48|76=BOOK|10=201|8=FIX.4.2|9=0165|35=8|34=1152|52=20110428-10:07:23|49=INORD|50=S|56=Y48|57=Y4801|6=0.0|11=KODRHN1GYGUV5|14=0|17=0|20=0|37=22417|39=0|54=1|55=5482|150=D|151=0|109=Y48|378=8|198=15008|10=108|8=FIX.4.2|9=0268|35=8|34=1153|52=20110428-10:07:23|49=INORD|50=S|56=Y48|57=Y4801|6=0.0|11=KODJNUYJ5QM8U|14=0|15=ISK|17=GPCFD1-22473|18=N|20=0|37=22419|38=100|39=0|40=2|44=51.1000|528=A|48=IS0000000388|54=1|55=5482|59=0|60=20110428-10:07:23|150=0|151=100|9140=Y|5815=23|109=Y48|76=BOOK|10=223|8=FIX.4.2|9=0165|35=8|34=1154|52=20110428-10:07:23|49=INORD|50=S|56=Y48|57=Y4801|6=0.0|11=KODJNUYJ5QM8U|14=0|17=0|20=0|37=22419|39=0|54=1|55=5482|150=D|151=0|109=Y48|378=8|198=15009|10=129|8=FIX.4.2|9=0268|35=8|34=1155|52=20110428-10:07:23|49=INORD|50=S|56=Y48|57=Y4801|6=0.0|11=KODHMHWW6UP88|14=0|15=ISK|17=GPCFD1-22475|18=N|20=0|37=22421|38=100|39=0|40=2|44=51.1000|528=A|48=IS0000000388|54=1|55=5482|59=0|60=20110428-10:07:23|150=0|151=100|9140=Y|5815=23|109=Y48|76=BOOK|10=194|8=FIX.4.2|9=0165|35=8|34=1156|52=20110428-10:07:23|49=INORD|50=S|56=Y48|57=Y4801|6=0.0|11=KODHMHWW6UP88|14=0|17=0|20=0|37=22421|39=0|54=1|55=5482|150=D|151=0|109=Y48|378=8|198=15010|10=090|8=FIX.4.2|9=0268|35=8|34=1157|52=20110428-10:07:23|49=INORD|50=S|56=Y48|57=Y4801|6=0.0|11=KODNKWRCPN2CS|14=0|15=ISK|17=GPCFD1-22477|18=N|20=0|37=22423|38=100|39=0|40=2|44=51.1000|528=A|48=IS0000000388|54=1|55=5482|59=0|60=20110428-10:07:23|150=0|151=100|9140=Y|5815=23|109=Y48|76=BOOK|10=221|8=FIX.4.2|9=0165|35=8|34=1158|52=20110428-10:07:23|49=INORD|50=S|56=Y48|57=Y4801|6=0.0|11=KODNKWRCPN2CS|14=0|17=0|20=0|37=22423|39=0|54=1|55=5482|150=D|151=0|109=Y48|378=8|198=15011|10=116|8=FIX.4.2|9=0268|35=8|34=1159|52=20110428-10:07:23|49=INORD|50=S|56=Y48|57=Y4801|6=0.0|11=KODSKGL480FKV|14=0|15=ISK|17=GPCFD1-22479|18=N|20=0|37=22425|38=100|39=0|40=2|44=51.1000|528=A|48=IS0000000388|54=1|55=5482|59=0|60=20110428-10:07:23|150=0|151=100|9140=Y|5815=23|109=Y48|76=BOOK|10=172|8=FIX.4.2|9=0165|35=8|34=1160|52=20110428-10:07:23|49=INORD|50=S|56=Y48|57=Y4801|6=0.0|11=KODSKGL480FKV|14=0|17=0|20=0|37=22425|39=0|54=1|55=5482|150=D|151=0|109=Y48|378=8|198=15012|10=057|8=FIX.4.2|9=0324|35=8|34=1161|52=20110428-10:07:23|49=INORD|50=S|56=Y48|57=Y4801|6=51.1000|11=KODCTEVVCASHJ|14=100|15=ISK|17=B16066|18=N|20=0|31=51.1000|32=100|37=22148|38=100|39=2|40=2|44=51.1000|528=A|48=IS0000000388|54=1|55=5482|59=0|60=20110428-10:07:23|75=20110428|150=2|151=0|9140=Y|5815=23|109=Y48|382=1|375=Y48|9882=X|1003=000016066|10=152|8=FIX.4.2|9=0270|35=8|34=1162|52=20110428-10:07:23|49=INORD|50=S|56=Y48|57=Y4801|6=0.0|11=KODUX6XHECQO2|14=0|15=ISK|17=GPCFD1-22481|18=N|20=0|37=22427|38=1000|39=0|40=2|44=51.1000|528=A|48=IS0000000388|54=2|55=5482|59=0|60=20110428-10:07:23|150=0|151=1000|9140=Y|5815=23|109=Y48|76=BOOK|10=036|8=FIX.4.2|9=0165|35=8|34=1163|52=20110428-10:07:23|49=INORD|50=S|56=Y48|57=Y4801|6=0.0|11=KODUX6XHECQO2|14=0|17=0|20=0|37=22427|39=0|54=2|55=5482|150=D|151=0|109=Y48|378=8|198=15013|10=105|8=FIX.4.2|9=0327|35=8|34=1164|52=20110428-10:07:23|49=INORD|50=S|56=Y48|57=Y4801|6=51.1000|11=KODUX6XHECQO2|14=100|15=ISK|17=S16065|18=N|20=0|31=51.1000|32=100|37=22427|38=1000|39=1|40=2|44=51.1000|528=A|48=IS0000000388|54=2|55=5482|59=0|60=20110428-10:07:23|75=20110428|150=1|151=900|9140=Y|5815=23|109=Y48|382=1|375=Y48|9882=X|1003=000016065|10=049|8=FIX.4.2|9=0324|35=8|34=1165|52=20110428-10:07:23|49=INORD|50=S|56=Y48|57=Y4801|6=51.1000|11=KOD22E5FHQIUS|14=100|15=ISK|17=B16068|18=N|20=0|31=51.1000|32=100|37=22154|38=100|39=2|40=2|44=51.1000|528=A|48=IS0000000388|54=1|55=5482|59=0|60=20110428-10:07:23|75=20110428|150=2|151=0|9140=Y|5815=23|109=Y48|382=1|375=Y48|9882=X|1003=000016068|10=090|8=FIX.4.2|9=0324|35=8|34=1166|52=20110428-10:07:23|49=INORD|50=S|56=Y48|57=Y4801|6=51.1000|11=KODS4IKH7RQ7F|14=100|15=ISK|17=B16070|18=N|20=0|31=51.1000|32=100|37=22158|38=100|39=2|40=2|44=51.1000|528=A|48=IS0000000388|54=1|55=5482|59=0|60=20110428-10:07:23|75=20110428|150=2|151=0|9140=Y|5815=23|109=Y48|382=1|375=Y48|9882=X|1003=000016070|10=093|8=FIX.4.2|9=0324|35=8|34=1167|52=20110428-10:07:23|49=INORD|50=S|56=Y48|57=Y4801|6=51.1000|11=KODSWM57PXGTK|14=100|15=ISK|17=B16065|18=N|20=0|31=51.1000|32=100|37=22146|38=100|39=2|40=2|44=51.1000|528=A|48=IS0000000388|54=1|55=5482|59=0|60=20110428-10:07:23|75=20110428|150=2|151=0|9140=Y|5815=23|109=Y48|382=1|375=Y48|9882=X|1003=000016065|10=154|8=FIX.4.2|9=0327|35=8|34=1168|52=20110428-10:07:23|49=INORD|50=S|56=Y48|57=Y4801|6=51.1000|11=KODUX6XHECQO2|14=200|15=ISK|17=S16066|18=N|20=0|31=51.1000|32=100|37=22427|38=1000|39=1|40=2|44=51.1000|528=A|48=IS0000000388|54=2|55=5482|59=0|60=20110428-10:07:23|75=20110428|150=1|151=800|9140=Y|5815=23|109=Y48|382=1|375=Y48|9882=X|1003=000016066|10=055|8=FIX.4.2|9=0324|35=8|34=1169|52=20110428-10:07:23|49=INORD|50=S|56=Y48|57=Y4801|6=51.1000|11=KODEVGXYUWEPD|14=100|15=ISK|17=B16071|18=N|20=0|31=51.1000|32=100|37=22160|38=100|39=2|40=2|44=51.1000|528=A|48=IS0000000388|54=1|55=5482|59=0|60=20110428-10:07:23|75=20110428|150=2|151=0|9140=Y|5815=23|109=Y48|382=1|375=Y48|9882=X|1003=000016071|10=185|8=FIX.4.2|9=0324|35=8|34=1170|52=20110428-10:07:23|49=INORD|50=S|56=Y48|57=Y4801|6=51.1000|11=KODV0EV4R80RG|14=100|15=ISK|17=B16073|18=N|20=0|31=51.1000|32=100|37=22164|38=100|39=2|40=2|44=51.1000|528=A|48=IS0000000388|54=1|55=5482|59=0|60=20110428-10:07:23|75=20110428|150=2|151=0|9140=Y|5815=23|109=Y48|382=1|375=Y48|9882=X|1003=000016073|10=073|8=FIX.4.2|9=0327|35=8|34=1171|52=20110428-10:07:23|49=INORD|50=S|56=Y48|57=Y4801|6=51.1000|11=KODUX6XHECQO2|14=300|15=ISK|17=S16067|18=N|20=0|31=51.1000|32=100|37=22427|38=1000|39=1|40=2|44=51.1000|528=A|48=IS0000000388|54=2|55=5482|59=0|60=20110428-10:07:23|75=20110428|150=1|151=700|9140=Y|5815=23|109=Y48|382=1|375=Y48|9882=X|1003=000016067|10=051|8=FIX.4.2|9=0324|35=8|34=1172|52=20110428-10:07:23|49=INORD|50=S|56=Y48|57=Y4801|6=51.1000|11=KOD1TPMM3XCA0|14=100|15=ISK|17=B16067|18=N|20=0|31=51.1000|32=100|37=22150|38=100|39=2|40=2|44=51.1000|528=A|48=IS0000000388|54=1|55=5482|59=0|60=20110428-10:07:23|75=20110428|150=2|151=0|9140=Y|5815=23|109=Y48|382=1|375=Y48|9882=X|1003=000016067|10=082|8=FIX.4.2|9=0327|35=8|34=1173|52=20110428-10:07:23|49=INORD|50=S|56=Y48|57=Y4801|6=51.1000|11=KODUX6XHECQO2|14=400|15=ISK|17=S16068|18=N|20=0|31=51.1000|32=100|37=22427|38=1000|39=1|40=2|44=51.1000|528=A|48=IS0000000388|54=2|55=5482|59=0|60=20110428-10:07:23|75=20110428|150=1|151=600|9140=Y|5815=23|109=Y48|382=1|375=Y48|9882=X|1003=000016068|10=055|8=FIX.4.2|9=0327|35=8|34=1174|52=20110428-10:07:23|49=INORD|50=S|56=Y48|57=Y4801|6=51.1000|11=KODUX6XHECQO2|14=500|15=ISK|17=S16069|18=N|20=0|31=51.1000|32=100|37=22427|38=1000|39=1|40=2|44=51.1000|528=A|48=IS0000000388|54=2|55=5482|59=0|60=20110428-10:07:23|75=20110428|150=1|151=500|9140=Y|5815=23|109=Y48|382=1|375=Y48|9882=X|1003=000016069|10=058|8=FIX.4.2|9=0324|35=8|34=1175|52=20110428-10:07:23|49=INORD|50=S|56=Y48|57=Y4801|6=51.1000|11=KODKMAJGIUXMW|14=100|15=ISK|17=B16069|18=N|20=0|31=51.1000|32=100|37=22156|38=100|39=2|40=2|44=51.1000|528=A|48=IS0000000388|54=1|55=5482|59=0|60=20110428-10:07:23|75=20110428|150=2|151=0|9140=Y|5815=23|109=Y48|382=1|375=Y48|9882=X|1003=000016069|10=181|8=FIX.4.2|9=0327|35=8|34=1176|52=20110428-10:07:23|49=INORD|50=S|56=Y48|57=Y4801|6=51.1000|11=KODUX6XHECQO2|14=600|15=ISK|17=S16070|18=N|20=0|31=51.1000|32=100|37=22427|38=1000|39=1|40=2|44=51.1000|528=A|48=IS0000000388|54=2|55=5482|59=0|60=20110428-10:07:23|75=20110428|150=1|151=400|9140=Y|5815=23|109=Y48|382=1|375=Y48|9882=X|1003=000016070|10=044|8=FIX.4.2|9=0327|35=8|34=1177|52=20110428-10:07:23|49=INORD|50=S|56=Y48|57=Y4801|6=51.1000|11=KODUX6XHECQO2|14=700|15=ISK|17=S16071|18=N|20=0|31=51.1000|32=100|37=22427|38=1000|39=1|40=2|44=51.1000|528=A|48=IS0000000388|54=2|55=5482|59=0|60=20110428-10:07:23|75=20110428|150=1|151=300|9140=Y|5815=23|109=Y48|382=1|375=Y48|9882=X|1003=000016071|10=047|8=FIX.4.2|9=0327|35=8|34=1178|52=20110428-10:07:23|49=INORD|50=S|56=Y48|57=Y4801|6=51.1000|11=KODUX6XHECQO2|14=800|15=ISK|17=S16072|18=N|20=0|31=51.1000|32=100|37=22427|38=1000|39=1|40=2|44=51.1000|528=A|48=IS0000000388|54=2|55=5482|59=0|60=20110428-10:07:23|75=20110428|150=1|151=200|9140=Y|5815=23|109=Y48|382=1|375=Y48|9882=X|1003=000016072|10=050|8=FIX.4.2|9=0324|35=8|34=1179|52=20110428-10:07:23|49=INORD|50=S|56=Y48|57=Y4801|6=51.1000|11=KODHW31VSG8DK|14=100|15=ISK|17=B16072|18=N|20=0|31=51.1000|32=100|37=22162|38=100|39=2|40=2|44=51.1000|528=A|48=IS0000000388|54=1|55=5482|59=0|60=20110428-10:07:23|75=20110428|150=2|151=0|9140=Y|5815=23|109=Y48|382=1|375=Y48|9882=X|1003=000016072|10=096|8=FIX.4.2|9=0327|35=8|34=1180|52=20110428-10:07:23|49=INORD|50=S|56=Y48|57=Y4801|6=51.1000|11=KODUX6XHECQO2|14=900|15=ISK|17=S16073|18=N|20=0|31=51.1000|32=100|37=22427|38=1000|39=1|40=2|44=51.1000|528=A|48=IS0000000388|54=2|55=5482|59=0|60=20110428-10:07:23|75=20110428|150=1|151=100|9140=Y|5815=23|109=Y48|382=1|375=Y48|9882=X|1003=000016073|10=045|8=FIX.4.2|9=0326|35=8|34=1181|52=20110428-10:07:23|49=INORD|50=S|56=Y48|57=Y4801|6=51.1000|11=KODUX6XHECQO2|14=1000|15=ISK|17=S16074|18=N|20=0|31=51.1000|32=100|37=22427|38=1000|39=2|40=2|44=51.1000|528=A|48=IS0000000388|54=2|55=5482|59=0|60=20110428-10:07:23|75=20110428|150=2|151=0|9140=Y|5815=23|109=Y48|382=1|375=Y48|9882=X|1003=000016074|10=248|8=FIX.4.2|9=0324|35=8|34=1182|52=20110428-10:07:23|49=INORD|50=S|56=Y48|57=Y4801|6=51.1000|11=KODNGKGGYT8ES|14=100|15=ISK|17=B16074|18=N|20=0|31=51.1000|32=100|37=22166|38=100|39=2|40=2|44=51.1000|528=A|48=IS0000000388|54=1|55=5482|59=0|60=20110428-10:07:23|75=20110428|150=2|151=0|9140=Y|5815=23|109=Y48|382=1|375=Y48|9882=X|1003=000016074|10=147|8=FIX.4.2|9=0324|35=8|34=1183|52=20110428-10:07:23|49=INORD|50=S|56=Y48|57=Y4801|6=51.1000|11=KODF1MO3W65QC|14=100|15=ISK|17=B16075|18=N|20=0|31=51.1000|32=100|37=22168|38=100|39=2|40=2|44=51.1000|528=A|48=IS0000000388|54=1|55=5482|59=0|60=20110428-10:07:23|75=20110428|150=2|151=0|9140=Y|5815=23|109=Y48|382=1|375=Y48|9882=X|1003=000016075|10=073|8=FIX.4.2|9=0270|35=8|34=1184|52=20110428-10:07:23|49=INORD|50=S|56=Y48|57=Y4801|6=0.0|11=KODQOLTIPJVPP|14=0|15=ISK|17=GPCFD1-22483|18=N|20=0|37=22429|38=1000|39=0|40=2|44=51.1000|528=A|48=IS0000000388|54=2|55=5482|59=0|60=20110428-10:07:23|150=0|151=1000|9140=Y|5815=23|109=Y48|76=BOOK|10=104|8=FIX.4.2|9=0165|35=8|34=1185|52=20110428-10:07:23|49=INORD|50=S|56=Y48|57=Y4801|6=0.0|11=KODQOLTIPJVPP|14=0|17=0|20=0|37=22429|39=0|54=2|55=5482|150=D|151=0|109=Y48|378=8|198=15014|10=172|8=FIX.4.2|9=0324|35=8|34=1186|52=20110428-10:07:23|49=INORD|50=S|56=Y48|57=Y4801|6=51.1000|11=KODM71DWVWTIQ|14=100|15=ISK|17=B16077|18=N|20=0|31=51.1000|32=100|37=22172|38=100|39=2|40=2|44=51.1000|528=A|48=IS0000000388|54=1|55=5482|59=0|60=20110428-10:07:23|75=20110428|150=2|151=0|9140=Y|5815=23|109=Y48|382=1|375=Y48|9882=X|1003=000016077|10=154|8=FIX.4.2|9=0327|35=8|34=1187|52=20110428-10:07:23|49=INORD|50=S|56=Y48|57=Y4801|6=51.1000|11=KODQOLTIPJVPP|14=100|15=ISK|17=S16075|18=N|20=0|31=51.1000|32=100|37=22429|38=1000|39=1|40=2|44=51.1000|528=A|48=IS0000000388|54=2|55=5482|59=0|60=20110428-10:07:23|75=20110428|150=1|151=900|9140=Y|5815=23|109=Y48|382=1|375=Y48|9882=X|1003=000016075|10=118|8=FIX.4.2|9=0324|35=8|34=1188|52=20110428-10:07:23|49=INORD|50=S|56=Y48|57=Y4801|6=51.1000|11=KODB6P8CNSPLM|14=100|15=ISK|17=B16079|18=N|20=0|31=51.1000|32=100|37=22176|38=100|39=2|40=2|44=51.1000|528=A|48=IS0000000388|54=1|55=5482|59=0|60=20110428-10:07:23|75=20110428|150=2|151=0|9140=Y|5815=23|109=Y48|382=1|375=Y48|9882=X|1003=000016079|10=134|8=FIX.4.2|9=0327|35=8|34=1189|52=20110428-10:07:23|49=INORD|50=S|56=Y48|57=Y4801|6=51.1000|11=KODQOLTIPJVPP|14=200|15=ISK|17=S16076|18=N|20=0|31=51.1000|32=100|37=22429|38=1000|39=1|40=2|44=51.1000|528=A|48=IS0000000388|54=2|55=5482|59=0|60=20110428-10:07:23|75=20110428|150=1|151=800|9140=Y|5815=23|109=Y48|382=1|375=Y48|9882=X|1003=000016076|10=122|8=FIX.4.2|9=0324|35=8|34=1190|52=20110428-10:07:23|49=INORD|50=S|56=Y48|57=Y4801|6=51.1000|11=KODOGBLWKADYE|14=100|15=ISK|17=B16081|18=N|20=0|31=51.1000|32=100|37=22180|38=100|39=2|40=2|44=51.1000|528=A|48=IS0000000388|54=1|55=5482|59=0|60=20110428-10:07:23|75=20110428|150=2|151=0|9140=Y|5815=23|109=Y48|382=1|375=Y48|9882=X|1003=000016081|10=136|8=FIX.4.2|9=0324|35=8|34=1191|52=20110428-10:07:23|49=INORD|50=S|56=Y48|57=Y4801|6=51.1000|11=KOD6NBI6KIJAI|14=100|15=ISK|17=B16076|18=N|20=0|31=51.1000|32=100|37=22170|38=100|39=2|40=2|44=51.1000|528=A|48=IS0000000388|54=1|55=5482|59=0|60=20110428-10:07:23|75=20110428|150=2|151=0|9140=Y|5815=23|109=Y48|382=1|375=Y48|9882=X|1003=000016076|10=084|8=FIX.4.2|9=0324|35=8|34=1192|52=20110428-10:07:23|49=INORD|50=S|56=Y48|57=Y4801|6=51.1000|11=KODMI6L6QPL86|14=100|15=ISK|17=B16083|18=N|20=0|31=51.1000|32=100|37=22184|38=100|39=2|40=2|44=51.1000|528=A|48=IS0000000388|54=1|55=5482|59=0|60=20110428-10:07:23|75=20110428|150=2|151=0|9140=Y|5815=23|109=Y48|382=1|375=Y48|9882=X|1003=000016083|10=082|8=FIX.4.2|9=0327|35=8|34=1193|52=20110428-10:07:23|49=INORD|50=S|56=Y48|57=Y4801|6=51.1000|11=KODQOLTIPJVPP|14=300|15=ISK|17=S16077|18=N|20=0|31=51.1000|32=100|37=22429|38=1000|39=1|40=2|44=51.1000|528=A|48=IS0000000388|54=2|55=5482|59=0|60=20110428-10:07:23|75=20110428|150=1|151=700|9140=Y|5815=23|109=Y48|382=1|375=Y48|9882=X|1003=000016077|10=119|8=FIX.4.2|9=0327|35=8|34=1194|52=20110428-10:07:23|49=INORD|50=S|56=Y48|57=Y4801|6=51.1000|11=KODQOLTIPJVPP|14=400|15=ISK|17=S16078|18=N|20=0|31=51.1000|32=100|37=22429|38=1000|39=1|40=2|44=51.1000|528=A|48=IS0000000388|54=2|55=5482|59=0|60=20110428-10:07:23|75=20110428|150=1|151=600|9140=Y|5815=23|109=Y48|382=1|375=Y48|9882=X|1003=000016078|10=122|8=FIX.4.2|9=0324|35=8|34=1195|52=20110428-10:07:23|49=INORD|50=S|56=Y48|57=Y4801|6=51.1000|11=KODVFCOAU1GON|14=100|15=ISK|17=B16078|18=N|20=0|31=51.1000|32=100|37=22174|38=100|39=2|40=2|44=51.1000|528=A|48=IS0000000388|54=1|55=5482|59=0|60=20110428-10:07:23|75=20110428|150=2|151=0|9140=Y|5815=23|109=Y48|382=1|375=Y48|9882=X|1003=000016078|10=140|8=FIX.4.2|9=0327|35=8|34=1196|52=20110428-10:07:23|49=INORD|50=S|56=Y48|57=Y4801|6=51.1000|11=KODQOLTIPJVPP|14=500|15=ISK|17=S16079|18=N|20=0|31=51.1000|32=100|37=22429|38=1000|39=1|40=2|44=51.1000|528=A|48=IS0000000388|54=2|55=5482|59=0|60=20110428-10:07:23|75=20110428|150=1|151=500|9140=Y|5815=23|109=Y48|382=1|375=Y48|9882=X|1003=000016079|10=126|8=FIX.4.2|9=0327|35=8|34=1197|52=20110428-10:07:23|49=INORD|50=S|56=Y48|57=Y4801|6=51.1000|11=KODQOLTIPJVPP|14=600|15=ISK|17=S16080|18=N|20=0|31=51.1000|32=100|37=22429|38=1000|39=1|40=2|44=51.1000|528=A|48=IS0000000388|54=2|55=5482|59=0|60=20110428-10:07:23|75=20110428|150=1|151=400|9140=Y|5815=23|109=Y48|382=1|375=Y48|9882=X|1003=000016080|10=111|8=FIX.4.2|9=0324|35=8|34=1198|52=20110428-10:07:23|49=INORD|50=S|56=Y48|57=Y4801|6=51.1000|11=KODY6VCVO48AU|14=100|15=ISK|17=B16080|18=N|20=0|31=51.1000|32=100|37=22178|38=100|39=2|40=2|44=51.1000|528=A|48=IS0000000388|54=1|55=5482|59=0|60=20110428-10:07:23|75=20110428|150=2|151=0|9140=Y|5815=23|109=Y48|382=1|375=Y48|9882=X|1003=000016080|10=123|8=FIX.4.2|9=0327|35=8|34=1199|52=20110428-10:07:23|49=INORD|50=S|56=Y48|57=Y4801|6=51.1000|11=KODQOLTIPJVPP|14=700|15=ISK|17=S16081|18=N|20=0|31=51.1000|32=100|37=22429|38=1000|39=1|40=2|44=51.1000|528=A|48=IS0000000388|54=2|55=5482|59=0|60=20110428-10:07:23|75=20110428|150=1|151=300|9140=Y|5815=23|109=Y48|382=1|375=Y48|9882=X|1003=000016081|10=115|8=FIX.4.2|9=0327|35=8|34=1200|52=20110428-10:07:23|49=INORD|50=S|56=Y48|57=Y4801|6=51.1000|11=KODQOLTIPJVPP|14=800|15=ISK|17=S16082|18=N|20=0|31=51.1000|32=100|37=22429|38=1000|39=1|40=2|44=51.1000|528=A|48=IS0000000388|54=2|55=5482|59=0|60=20110428-10:07:23|75=20110428|150=1|151=200|9140=Y|5815=23|109=Y48|382=1|375=Y48|9882=X|1003=000016082|10=100|8=FIX.4.2|9=0324|35=8|34=1201|52=20110428-10:07:23|49=INORD|50=S|56=Y48|57=Y4801|6=51.1000|11=KOD3J3MWBD3GI|14=100|15=ISK|17=B16082|18=N|20=0|31=51.1000|32=100|37=22182|38=100|39=2|40=2|44=51.1000|528=A|48=IS0000000388|54=1|55=5482|59=0|60=20110428-10:07:23|75=20110428|150=2|151=0|9140=Y|5815=23|109=Y48|382=1|375=Y48|9882=X|1003=000016082|10=057|8=FIX.4.2|9=0327|35=8|34=1202|52=20110428-10:07:23|49=INORD|50=S|56=Y48|57=Y4801|6=51.1000|11=KODQOLTIPJVPP|14=900|15=ISK|17=S16083|18=N|20=0|31=51.1000|32=100|37=22429|38=1000|39=1|40=2|44=51.1000|528=A|48=IS0000000388|54=2|55=5482|59=0|60=20110428-10:07:23|75=20110428|150=1|151=100|9140=Y|5815=23|109=Y48|382=1|375=Y48|9882=X|1003=000016083|10=104|8=FIX.4.2|9=0326|35=8|34=1203|52=20110428-10:07:23|49=INORD|50=S|56=Y48|57=Y4801|6=51.1000|11=KODQOLTIPJVPP|14=1000|15=ISK|17=S16084|18=N|20=0|31=51.1000|32=100|37=22429|38=1000|39=2|40=2|44=51.1000|528=A|48=IS0000000388|54=2|55=5482|59=0|60=20110428-10:07:23|75=20110428|150=2|151=0|9140=Y|5815=23|109=Y48|382=1|375=Y48|9882=X|1003=000016084|10=051|8=FIX.4.2|9=0324|35=8|34=1204|52=20110428-10:07:23|49=INORD|50=S|56=Y48|57=Y4801|6=51.1000|11=KODII5UACRDJE|14=100|15=ISK|17=B16084|18=N|20=0|31=51.1000|32=100|37=22186|38=100|39=2|40=2|44=51.1000|528=A|48=IS0000000388|54=1|55=5482|59=0|60=20110428-10:07:23|75=20110428|150=2|151=0|9140=Y|5815=23|109=Y48|382=1|375=Y48|9882=X|1003=000016084|10=108|8=FIX.4.2|9=0268|35=8|34=1205|52=20110428-10:07:23|49=INORD|50=S|56=Y48|57=Y4801|6=0.0|11=KODAMJHBLAEYB|14=0|15=ISK|17=GPCFD1-22485|18=N|20=0|37=22431|38=100|39=0|40=2|44=51.1000|528=A|48=IS0000000388|54=1|55=5482|59=0|60=20110428-10:07:23|150=0|151=100|9140=Y|5815=23|109=Y48|76=BOOK|10=185|8=FIX.4.2|9=0165|35=8|34=1206|52=20110428-10:07:23|49=INORD|50=S|56=Y48|57=Y4801|6=0.0|11=KODAMJHBLAEYB|14=0|17=0|20=0|37=22431|39=0|54=1|55=5482|150=D|151=0|109=Y48|378=8|198=15015|10=085|8=FIX.4.2|9=0268|35=8|34=1207|52=20110428-10:07:23|49=INORD|50=S|56=Y48|57=Y4801|6=0.0|11=KODPAAST42YQQ|14=0|15=ISK|17=GPCFD1-22487|18=N|20=0|37=22433|38=100|39=0|40=2|44=51.1000|528=A|48=IS0000000388|54=1|55=5482|59=0|60=20110428-10:07:23|150=0|151=100|9140=Y|5815=23|109=Y48|76=BOOK|10=202|8=FIX.4.2|9=0165|35=8|34=1208|52=20110428-10:07:23|49=INORD|50=S|56=Y48|57=Y4801|6=0.0|11=KODPAAST42YQQ|14=0|17=0|20=0|37=22433|39=0|54=1|55=5482|150=D|151=0|109=Y48|378=8|198=15016|10=101|8=FIX.4.2|9=0268|35=8|34=1209|52=20110428-10:07:24|49=INORD|50=S|56=Y48|57=Y4801|6=0.0|11=KODPLD5RDKFBT|14=0|15=ISK|17=GPCFD1-22489|18=N|20=0|37=22435|38=100|39=0|40=2|44=51.1000|528=A|48=IS0000000388|54=1|55=5482|59=0|60=20110428-10:07:24|150=0|151=100|9140=Y|5815=23|109=Y48|76=BOOK|10=202|8=FIX.4.2|9=0165|35=8|34=1210|52=20110428-10:07:24|49=INORD|50=S|56=Y48|57=Y4801|6=0.0|11=KODPLD5RDKFBT|14=0|17=0|20=0|37=22435|39=0|54=1|55=5482|150=D|151=0|109=Y48|378=8|198=15017|10=090|8=FIX.4.2|9=0268|35=8|34=1211|52=20110428-10:07:24|49=INORD|50=S|56=Y48|57=Y4801|6=0.0|11=KODXQL3L13R5X|14=0|15=ISK|17=GPCFD1-22491|18=N|20=0|37=22437|38=100|39=0|40=2|44=51.1000|528=A|48=IS0000000388|54=1|55=5482|59=0|60=20110428-10:07:24|150=0|151=100|9140=Y|5815=23|109=Y48|76=BOOK|10=163|8=FIX.4.2|9=0165|35=8|34=1212|52=20110428-10:07:24|49=INORD|50=S|56=Y48|57=Y4801|6=0.0|11=KODXQL3L13R5X|14=0|17=0|20=0|37=22437|39=0|54=1|55=5482|150=D|151=0|109=Y48|378=8|198=15018|10=068|8=FIX.4.2|9=0268|35=8|34=1213|52=20110428-10:07:24|49=INORD|50=S|56=Y48|57=Y4801|6=0.0|11=KODUW2TE4VKFU|14=0|15=ISK|17=GPCFD1-22493|18=N|20=0|37=22439|38=100|39=0|40=2|44=51.1000|528=A|48=IS0000000388|54=1|55=5482|59=0|60=20110428-10:07:24|150=0|151=100|9140=Y|5815=23|109=Y48|76=BOOK|10=217|8=FIX.4.2|9=0165|35=8|34=1214|52=20110428-10:07:24|49=INORD|50=S|56=Y48|57=Y4801|6=0.0|11=KODUW2TE4VKFU|14=0|17=0|20=0|37=22439|39=0|54=1|55=5482|150=D|151=0|109=Y48|378=8|198=15019|10=121|8=FIX.4.2|9=0268|35=8|34=1215|52=20110428-10:07:24|49=INORD|50=S|56=Y48|57=Y4801|6=0.0|11=KODHOQ1EXNEMY|14=0|15=ISK|17=GPCFD1-22495|18=N|20=0|37=22441|38=100|39=0|40=2|44=51.1000|528=A|48=IS0000000388|54=1|55=5482|59=0|60=20110428-10:07:24|150=0|151=100|9140=Y|5815=23|109=Y48|76=BOOK|10=222|8=FIX.4.2|9=0165|35=8|34=1216|52=20110428-10:07:24|49=INORD|50=S|56=Y48|57=Y4801|6=0.0|11=KODHOQ1EXNEMY|14=0|17=0|20=0|37=22441|39=0|54=1|55=5482|150=D|151=0|109=Y48|378=8|198=15020|10=116|8=FIX.4.2|9=0268|35=8|34=1217|52=20110428-10:07:24|49=INORD|50=S|56=Y48|57=Y4801|6=0.0|11=KODD3H7LWEX10|14=0|15=ISK|17=GPCFD1-22497|18=N|20=0|37=22443|38=100|39=0|40=2|44=51.1000|528=A|48=IS0000000388|54=1|55=5482|59=0|60=20110428-10:07:24|150=0|151=100|9140=Y|5815=23|109=Y48|76=BOOK|10=140|8=FIX.4.2|9=0165|35=8|34=1218|52=20110428-10:07:24|49=INORD|50=S|56=Y48|57=Y4801|6=0.0|11=KODD3H7LWEX10|14=0|17=0|20=0|37=22443|39=0|54=1|55=5482|150=D|151=0|109=Y48|378=8|198=15021|10=033|8=FIX.4.2|9=0268|35=8|34=1219|52=20110428-10:07:24|49=INORD|50=S|56=Y48|57=Y4801|6=0.0|11=KODN27AJPDW7U|14=0|15=ISK|17=GPCFD1-22499|18=N|20=0|37=22445|38=100|39=0|40=2|44=51.1000|528=A|48=IS0000000388|54=1|55=5482|59=0|60=20110428-10:07:24|150=0|151=100|9140=Y|5815=23|109=Y48|76=BOOK|10=180|8=FIX.4.2|9=0165|35=8|34=1220|52=20110428-10:07:24|49=INORD|50=S|56=Y48|57=Y4801|6=0.0|11=KODN27AJPDW7U|14=0|17=0|20=0|37=22445|39=0|54=1|55=5482|150=D|151=0|109=Y48|378=8|198=15022|10=063|8=FIX.4.2|9=0268|35=8|34=1221|52=20110428-10:07:24|49=INORD|50=S|56=Y48|57=Y4801|6=0.0|11=KODM0NYLLVCQX|14=0|15=ISK|17=GPCFD1-22501|18=N|20=0|37=22447|38=100|39=0|40=2|44=51.1000|528=A|48=IS0000000388|54=1|55=5482|59=0|60=20110428-10:07:24|150=0|151=100|9140=Y|5815=23|109=Y48|76=BOOK|10=228|8=FIX.4.2|9=0165|35=8|34=1222|52=20110428-10:07:24|49=INORD|50=S|56=Y48|57=Y4801|6=0.0|11=KODM0NYLLVCQX|14=0|17=0|20=0|37=22447|39=0|54=1|55=5482|150=D|151=0|109=Y48|378=8|198=15023|10=137|8=FIX.4.2|9=0268|35=8|34=1223|52=20110428-10:07:24|49=INORD|50=S|56=Y48|57=Y4801|6=0.0|11=KODKONVBKUJVE|14=0|15=ISK|17=GPCFD1-22503|18=N|20=0|37=22449|38=100|39=0|40=2|44=51.1000|528=A|48=IS0000000388|54=1|55=5482|59=0|60=20110428-10:07:24|150=0|151=100|9140=Y|5815=23|109=Y48|76=BOOK|10=241|8=FIX.4.2|9=0165|35=8|34=1224|52=20110428-10:07:24|49=INORD|50=S|56=Y48|57=Y4801|6=0.0|11=KODKONVBKUJVE|14=0|17=0|20=0|37=22449|39=0|54=1|55=5482|150=D|151=0|109=Y48|378=8|198=15024|10=149|8=FIX.4.2|9=0268|35=8|34=1225|52=20110428-10:07:25|49=INORD|50=S|56=Y48|57=Y4801|6=0.0|11=KODJPIQP4QDMV|14=0|15=ISK|17=GPCFD1-22505|18=N|20=0|37=22451|38=100|39=0|40=2|44=51.1000|528=A|48=IS0000000388|54=1|55=5482|59=0|60=20110428-10:07:25|150=0|151=100|9140=Y|5815=23|109=Y48|76=BOOK|10=219|8=FIX.4.2|9=0165|35=8|34=1226|52=20110428-10:07:25|49=INORD|50=S|56=Y48|57=Y4801|6=0.0|11=KODJPIQP4QDMV|14=0|17=0|20=0|37=22451|39=0|54=1|55=5482|150=D|151=0|109=Y48|378=8|198=15025|10=125|8=FIX.4.2|9=0268|35=8|34=1227|52=20110428-10:07:25|49=INORD|50=S|56=Y48|57=Y4801|6=0.0|11=KOD3BOVWUGKPA|14=0|15=ISK|17=GPCFD1-22507|18=N|20=0|37=22453|38=100|39=0|40=2|44=51.1000|528=A|48=IS0000000388|54=1|55=5482|59=0|60=20110428-10:07:25|150=0|151=100|9140=Y|5815=23|109=Y48|76=BOOK|10=218|
